{
	"data": {
		"bytecode": {
			"linkReferences": {},
			"object": "608060405260cc806100126000396000f3fe6080604052348015600f57600080fd5b506004361060325760003560e01c80632e6166781460375780636f9fb98a146053575b600080fd5b603d606f565b6040518082815260200191505060405180910390f35b6059608e565b6040518082815260200191505060405180910390f35b60003373ffffffffffffffffffffffffffffffffffffffff1631905090565b60004790509056fea264697066735822122023edd84fa50f25be729517d6df5eb21a92d35b2e957292b0475f303b216864b764736f6c63430007040033",
			"opcodes": "PUSH1 0x80 PUSH1 0x40 MSTORE PUSH1 0xCC DUP1 PUSH2 0x12 PUSH1 0x0 CODECOPY PUSH1 0x0 RETURN INVALID PUSH1 0x80 PUSH1 0x40 MSTORE CALLVALUE DUP1 ISZERO PUSH1 0xF JUMPI PUSH1 0x0 DUP1 REVERT JUMPDEST POP PUSH1 0x4 CALLDATASIZE LT PUSH1 0x32 JUMPI PUSH1 0x0 CALLDATALOAD PUSH1 0xE0 SHR DUP1 PUSH4 0x2E616678 EQ PUSH1 0x37 JUMPI DUP1 PUSH4 0x6F9FB98A EQ PUSH1 0x53 JUMPI JUMPDEST PUSH1 0x0 DUP1 REVERT JUMPDEST PUSH1 0x3D PUSH1 0x6F JUMP JUMPDEST PUSH1 0x40 MLOAD DUP1 DUP3 DUP2 MSTORE PUSH1 0x20 ADD SWAP2 POP POP PUSH1 0x40 MLOAD DUP1 SWAP2 SUB SWAP1 RETURN JUMPDEST PUSH1 0x59 PUSH1 0x8E JUMP JUMPDEST PUSH1 0x40 MLOAD DUP1 DUP3 DUP2 MSTORE PUSH1 0x20 ADD SWAP2 POP POP PUSH1 0x40 MLOAD DUP1 SWAP2 SUB SWAP1 RETURN JUMPDEST PUSH1 0x0 CALLER PUSH20 0xFFFFFFFFFFFFFFFFFFFFFFFFFFFFFFFFFFFFFFFF AND BALANCE SWAP1 POP SWAP1 JUMP JUMPDEST PUSH1 0x0 SELFBALANCE SWAP1 POP SWAP1 JUMP INVALID LOG2 PUSH5 0x6970667358 0x22 SLT KECCAK256 0x23 0xED 0xD8 0x4F 0xA5 0xF 0x25 0xBE PUSH19 0x9517D6DF5EB21A92D35B2E957292B0475F303B 0x21 PUSH9 0x64B764736F6C634300 SMOD DIV STOP CALLER "
		},
		"gasEstimates": {
			"creation": {
				"codeDepositCost": "40800",
				"executionCost": "69",
				"totalCost": "40869"
			},
			"external": {
				"getContractBalance()": "215",
				"getEOABalance()": "896"
			}
		},
		"methodIdentifiers": {
			"getContractBalance()": "6f9fb98a",
			"getEOABalance()": "2e616678"
		}
	},
	"abi": [
		{
			"inputs": [],
			"stateMutability": "payable",
			"type": "constructor"
		},
		{
			"inputs": [],
			"name": "getContractBalance",
			"outputs": [
				{
					"internalType": "uint256",
					"name": "",
					"type": "uint256"
				}
			],
			"stateMutability": "view",
			"type": "function"
		},
		{
			"inputs": [],
			"name": "getEOABalance",
			"outputs": [
				{
					"internalType": "uint256",
					"name": "",
					"type": "uint256"
				}
			],
			"stateMutability": "view",
			"type": "function"
		}
	]
}