{
	"data": {
		"bytecode": {
			"linkReferences": {},
			"object": "608060405234801561001057600080fd5b50610290806100206000396000f3fe608060405234801561001057600080fd5b50600436106100575760003560e01c80632190d2821461005c5780632ff434d01461007a5780639deec39414610098578063b404f612146100b6578063b8095f11146100d4575b600080fd5b6100646100f2565b6040518082815260200191505060405180910390f35b610082610148565b6040518082815260200191505060405180910390f35b6100a06101b1565b6040518082815260200191505060405180910390f35b6100be610203565b6040518082815260200191505060405180910390f35b6100dc610225565b6040518082815260200191505060405180910390f35b60006060601467ffffffffffffffff8111801561010e57600080fd5b5060405190808252806020026020018201604052801561013d5781602001602082028036833780820191505090505b509050805191505090565b60006060600a67ffffffffffffffff8111801561016457600080fd5b506040519080825280602002602001820160405280156101935781602001602082028036833780820191505090505b50905080600a815181106101a357fe5b602002602001015191505090565b60006101bb610237565b6032816000600a81106101ca57fe5b6020020181815250506064816001600a81106101e257fe5b602002018181525050806000600a81106101f857fe5b602002015191505090565b600061020d610237565b806009600a811061021a57fe5b602002015191505090565b600061022f610237565b600a91505090565b604051806101400160405280600a9060208202803683378082019150509050509056fea2646970667358221220a6552ef76085475c22135d997f07b10f581e1cecf7dfc25c57de049868b338c464736f6c63430007040033",
			"opcodes": "PUSH1 0x80 PUSH1 0x40 MSTORE CALLVALUE DUP1 ISZERO PUSH2 0x10 JUMPI PUSH1 0x0 DUP1 REVERT JUMPDEST POP PUSH2 0x290 DUP1 PUSH2 0x20 PUSH1 0x0 CODECOPY PUSH1 0x0 RETURN INVALID PUSH1 0x80 PUSH1 0x40 MSTORE CALLVALUE DUP1 ISZERO PUSH2 0x10 JUMPI PUSH1 0x0 DUP1 REVERT JUMPDEST POP PUSH1 0x4 CALLDATASIZE LT PUSH2 0x57 JUMPI PUSH1 0x0 CALLDATALOAD PUSH1 0xE0 SHR DUP1 PUSH4 0x2190D282 EQ PUSH2 0x5C JUMPI DUP1 PUSH4 0x2FF434D0 EQ PUSH2 0x7A JUMPI DUP1 PUSH4 0x9DEEC394 EQ PUSH2 0x98 JUMPI DUP1 PUSH4 0xB404F612 EQ PUSH2 0xB6 JUMPI DUP1 PUSH4 0xB8095F11 EQ PUSH2 0xD4 JUMPI JUMPDEST PUSH1 0x0 DUP1 REVERT JUMPDEST PUSH2 0x64 PUSH2 0xF2 JUMP JUMPDEST PUSH1 0x40 MLOAD DUP1 DUP3 DUP2 MSTORE PUSH1 0x20 ADD SWAP2 POP POP PUSH1 0x40 MLOAD DUP1 SWAP2 SUB SWAP1 RETURN JUMPDEST PUSH2 0x82 PUSH2 0x148 JUMP JUMPDEST PUSH1 0x40 MLOAD DUP1 DUP3 DUP2 MSTORE PUSH1 0x20 ADD SWAP2 POP POP PUSH1 0x40 MLOAD DUP1 SWAP2 SUB SWAP1 RETURN JUMPDEST PUSH2 0xA0 PUSH2 0x1B1 JUMP JUMPDEST PUSH1 0x40 MLOAD DUP1 DUP3 DUP2 MSTORE PUSH1 0x20 ADD SWAP2 POP POP PUSH1 0x40 MLOAD DUP1 SWAP2 SUB SWAP1 RETURN JUMPDEST PUSH2 0xBE PUSH2 0x203 JUMP JUMPDEST PUSH1 0x40 MLOAD DUP1 DUP3 DUP2 MSTORE PUSH1 0x20 ADD SWAP2 POP POP PUSH1 0x40 MLOAD DUP1 SWAP2 SUB SWAP1 RETURN JUMPDEST PUSH2 0xDC PUSH2 0x225 JUMP JUMPDEST PUSH1 0x40 MLOAD DUP1 DUP3 DUP2 MSTORE PUSH1 0x20 ADD SWAP2 POP POP PUSH1 0x40 MLOAD DUP1 SWAP2 SUB SWAP1 RETURN JUMPDEST PUSH1 0x0 PUSH1 0x60 PUSH1 0x14 PUSH8 0xFFFFFFFFFFFFFFFF DUP2 GT DUP1 ISZERO PUSH2 0x10E JUMPI PUSH1 0x0 DUP1 REVERT JUMPDEST POP PUSH1 0x40 MLOAD SWAP1 DUP1 DUP3 MSTORE DUP1 PUSH1 0x20 MUL PUSH1 0x20 ADD DUP3 ADD PUSH1 0x40 MSTORE DUP1 ISZERO PUSH2 0x13D JUMPI DUP2 PUSH1 0x20 ADD PUSH1 0x20 DUP3 MUL DUP1 CALLDATASIZE DUP4 CALLDATACOPY DUP1 DUP3 ADD SWAP2 POP POP SWAP1 POP JUMPDEST POP SWAP1 POP DUP1 MLOAD SWAP2 POP POP SWAP1 JUMP JUMPDEST PUSH1 0x0 PUSH1 0x60 PUSH1 0xA PUSH8 0xFFFFFFFFFFFFFFFF DUP2 GT DUP1 ISZERO PUSH2 0x164 JUMPI PUSH1 0x0 DUP1 REVERT JUMPDEST POP PUSH1 0x40 MLOAD SWAP1 DUP1 DUP3 MSTORE DUP1 PUSH1 0x20 MUL PUSH1 0x20 ADD DUP3 ADD PUSH1 0x40 MSTORE DUP1 ISZERO PUSH2 0x193 JUMPI DUP2 PUSH1 0x20 ADD PUSH1 0x20 DUP3 MUL DUP1 CALLDATASIZE DUP4 CALLDATACOPY DUP1 DUP3 ADD SWAP2 POP POP SWAP1 POP JUMPDEST POP SWAP1 POP DUP1 PUSH1 0xA DUP2 MLOAD DUP2 LT PUSH2 0x1A3 JUMPI INVALID JUMPDEST PUSH1 0x20 MUL PUSH1 0x20 ADD ADD MLOAD SWAP2 POP POP SWAP1 JUMP JUMPDEST PUSH1 0x0 PUSH2 0x1BB PUSH2 0x237 JUMP JUMPDEST PUSH1 0x32 DUP2 PUSH1 0x0 PUSH1 0xA DUP2 LT PUSH2 0x1CA JUMPI INVALID JUMPDEST PUSH1 0x20 MUL ADD DUP2 DUP2 MSTORE POP POP PUSH1 0x64 DUP2 PUSH1 0x1 PUSH1 0xA DUP2 LT PUSH2 0x1E2 JUMPI INVALID JUMPDEST PUSH1 0x20 MUL ADD DUP2 DUP2 MSTORE POP POP DUP1 PUSH1 0x0 PUSH1 0xA DUP2 LT PUSH2 0x1F8 JUMPI INVALID JUMPDEST PUSH1 0x20 MUL ADD MLOAD SWAP2 POP POP SWAP1 JUMP JUMPDEST PUSH1 0x0 PUSH2 0x20D PUSH2 0x237 JUMP JUMPDEST DUP1 PUSH1 0x9 PUSH1 0xA DUP2 LT PUSH2 0x21A JUMPI INVALID JUMPDEST PUSH1 0x20 MUL ADD MLOAD SWAP2 POP POP SWAP1 JUMP JUMPDEST PUSH1 0x0 PUSH2 0x22F PUSH2 0x237 JUMP JUMPDEST PUSH1 0xA SWAP2 POP POP SWAP1 JUMP JUMPDEST PUSH1 0x40 MLOAD DUP1 PUSH2 0x140 ADD PUSH1 0x40 MSTORE DUP1 PUSH1 0xA SWAP1 PUSH1 0x20 DUP3 MUL DUP1 CALLDATASIZE DUP4 CALLDATACOPY DUP1 DUP3 ADD SWAP2 POP POP SWAP1 POP POP SWAP1 JUMP INVALID LOG2 PUSH5 0x6970667358 0x22 SLT KECCAK256 0xA6 SSTORE 0x2E 0xF7 PUSH1 0x85 SELFBALANCE 0x5C 0x22 SGT 0x5D SWAP10 PUSH32 0x7B10F581E1CECF7DFC25C57DE049868B338C464736F6C634300070400330000 "
		},
		"gasEstimates": {
			"creation": {
				"codeDepositCost": "131200",
				"executionCost": "177",
				"totalCost": "131377"
			},
			"external": {
				"test1GetLength()": "infinite",
				"test2GetLength()": "infinite",
				"test3GetFirstElement()": "infinite",
				"test4GetWrongElement()": "infinite",
				"test5GetWrongElement()": "infinite"
			}
		},
		"methodIdentifiers": {
			"test1GetLength()": "b8095f11",
			"test2GetLength()": "2190d282",
			"test3GetFirstElement()": "9deec394",
			"test4GetWrongElement()": "2ff434d0",
			"test5GetWrongElement()": "b404f612"
		}
	},
	"abi": [
		{
			"inputs": [],
			"name": "test1GetLength",
			"outputs": [
				{
					"internalType": "uint256",
					"name": "",
					"type": "uint256"
				}
			],
			"stateMutability": "pure",
			"type": "function"
		},
		{
			"inputs": [],
			"name": "test2GetLength",
			"outputs": [
				{
					"internalType": "uint256",
					"name": "",
					"type": "uint256"
				}
			],
			"stateMutability": "pure",
			"type": "function"
		},
		{
			"inputs": [],
			"name": "test3GetFirstElement",
			"outputs": [
				{
					"internalType": "uint256",
					"name": "",
					"type": "uint256"
				}
			],
			"stateMutability": "pure",
			"type": "function"
		},
		{
			"inputs": [],
			"name": "test4GetWrongElement",
			"outputs": [
				{
					"internalType": "uint256",
					"name": "",
					"type": "uint256"
				}
			],
			"stateMutability": "pure",
			"type": "function"
		},
		{
			"inputs": [],
			"name": "test5GetWrongElement",
			"outputs": [
				{
					"internalType": "uint256",
					"name": "",
					"type": "uint256"
				}
			],
			"stateMutability": "pure",
			"type": "function"
		}
	]
}