{
	"data": {
		"bytecode": {
			"linkReferences": {},
			"object": "608060405234801561001057600080fd5b506101ba806100206000396000f3fe608060405234801561001057600080fd5b50600436106100575760003560e01c80631d8beb3c1461005c57806399400a5a14610066578063c744319314610097578063de8fa431146100b5578063f0849992146100de575b600080fd5b610064610107565b005b6100956004803603602081101561007c57600080fd5b81019080803560ff16906020019092919050505061012c565b005b61009f610151565b6040518082815260200191505060405180910390f35b6100bd610165565b604051808260048111156100cd57fe5b815260200191505060405180910390f35b6100e661017b565b604051808260048111156100f657fe5b815260200191505060405180910390f35b60036000806101000a81548160ff0219169083600481111561012557fe5b0217905550565b806000806101000a81548160ff0219169083600481111561014957fe5b021790555050565b60006001600481111561016057fe5b905090565b60008060009054906101000a900460ff16905090565b6000600190509056fea2646970667358221220ee1738f1267314803ec2ee72e6a282b84cd7e1e5c44cccbb83beefa6ee76953864736f6c63430007040033",
			"opcodes": "PUSH1 0x80 PUSH1 0x40 MSTORE CALLVALUE DUP1 ISZERO PUSH2 0x10 JUMPI PUSH1 0x0 DUP1 REVERT JUMPDEST POP PUSH2 0x1BA DUP1 PUSH2 0x20 PUSH1 0x0 CODECOPY PUSH1 0x0 RETURN INVALID PUSH1 0x80 PUSH1 0x40 MSTORE CALLVALUE DUP1 ISZERO PUSH2 0x10 JUMPI PUSH1 0x0 DUP1 REVERT JUMPDEST POP PUSH1 0x4 CALLDATASIZE LT PUSH2 0x57 JUMPI PUSH1 0x0 CALLDATALOAD PUSH1 0xE0 SHR DUP1 PUSH4 0x1D8BEB3C EQ PUSH2 0x5C JUMPI DUP1 PUSH4 0x99400A5A EQ PUSH2 0x66 JUMPI DUP1 PUSH4 0xC7443193 EQ PUSH2 0x97 JUMPI DUP1 PUSH4 0xDE8FA431 EQ PUSH2 0xB5 JUMPI DUP1 PUSH4 0xF0849992 EQ PUSH2 0xDE JUMPI JUMPDEST PUSH1 0x0 DUP1 REVERT JUMPDEST PUSH2 0x64 PUSH2 0x107 JUMP JUMPDEST STOP JUMPDEST PUSH2 0x95 PUSH1 0x4 DUP1 CALLDATASIZE SUB PUSH1 0x20 DUP2 LT ISZERO PUSH2 0x7C JUMPI PUSH1 0x0 DUP1 REVERT JUMPDEST DUP2 ADD SWAP1 DUP1 DUP1 CALLDATALOAD PUSH1 0xFF AND SWAP1 PUSH1 0x20 ADD SWAP1 SWAP3 SWAP2 SWAP1 POP POP POP PUSH2 0x12C JUMP JUMPDEST STOP JUMPDEST PUSH2 0x9F PUSH2 0x151 JUMP JUMPDEST PUSH1 0x40 MLOAD DUP1 DUP3 DUP2 MSTORE PUSH1 0x20 ADD SWAP2 POP POP PUSH1 0x40 MLOAD DUP1 SWAP2 SUB SWAP1 RETURN JUMPDEST PUSH2 0xBD PUSH2 0x165 JUMP JUMPDEST PUSH1 0x40 MLOAD DUP1 DUP3 PUSH1 0x4 DUP2 GT ISZERO PUSH2 0xCD JUMPI INVALID JUMPDEST DUP2 MSTORE PUSH1 0x20 ADD SWAP2 POP POP PUSH1 0x40 MLOAD DUP1 SWAP2 SUB SWAP1 RETURN JUMPDEST PUSH2 0xE6 PUSH2 0x17B JUMP JUMPDEST PUSH1 0x40 MLOAD DUP1 DUP3 PUSH1 0x4 DUP2 GT ISZERO PUSH2 0xF6 JUMPI INVALID JUMPDEST DUP2 MSTORE PUSH1 0x20 ADD SWAP2 POP POP PUSH1 0x40 MLOAD DUP1 SWAP2 SUB SWAP1 RETURN JUMPDEST PUSH1 0x3 PUSH1 0x0 DUP1 PUSH2 0x100 EXP DUP2 SLOAD DUP2 PUSH1 0xFF MUL NOT AND SWAP1 DUP4 PUSH1 0x4 DUP2 GT ISZERO PUSH2 0x125 JUMPI INVALID JUMPDEST MUL OR SWAP1 SSTORE POP JUMP JUMPDEST DUP1 PUSH1 0x0 DUP1 PUSH2 0x100 EXP DUP2 SLOAD DUP2 PUSH1 0xFF MUL NOT AND SWAP1 DUP4 PUSH1 0x4 DUP2 GT ISZERO PUSH2 0x149 JUMPI INVALID JUMPDEST MUL OR SWAP1 SSTORE POP POP JUMP JUMPDEST PUSH1 0x0 PUSH1 0x1 PUSH1 0x4 DUP2 GT ISZERO PUSH2 0x160 JUMPI INVALID JUMPDEST SWAP1 POP SWAP1 JUMP JUMPDEST PUSH1 0x0 DUP1 PUSH1 0x0 SWAP1 SLOAD SWAP1 PUSH2 0x100 EXP SWAP1 DIV PUSH1 0xFF AND SWAP1 POP SWAP1 JUMP JUMPDEST PUSH1 0x0 PUSH1 0x1 SWAP1 POP SWAP1 JUMP INVALID LOG2 PUSH5 0x6970667358 0x22 SLT KECCAK256 0xEE OR CODESIZE CALL 0x26 PUSH20 0x14803EC2EE72E6A282B84CD7E1E5C44CCCBB83BE 0xEF 0xA6 0xEE PUSH23 0x953864736F6C6343000704003300000000000000000000 "
		},
		"gasEstimates": {
			"creation": {
				"codeDepositCost": "88400",
				"executionCost": "135",
				"totalCost": "88535"
			},
			"external": {
				"getDefaultSize()": "305",
				"getDefaultSize2()": "261",
				"getSize()": "1119",
				"setSize(uint8)": "21121",
				"setVenti()": "21009"
			}
		},
		"methodIdentifiers": {
			"getDefaultSize()": "f0849992",
			"getDefaultSize2()": "c7443193",
			"getSize()": "de8fa431",
			"setSize(uint8)": "99400a5a",
			"setVenti()": "1d8beb3c"
		}
	},
	"abi": [
		{
			"inputs": [],
			"name": "getDefaultSize",
			"outputs": [
				{
					"internalType": "enum Demo4.StarbuckSize",
					"name": "",
					"type": "uint8"
				}
			],
			"stateMutability": "pure",
			"type": "function"
		},
		{
			"inputs": [],
			"name": "getDefaultSize2",
			"outputs": [
				{
					"internalType": "uint256",
					"name": "",
					"type": "uint256"
				}
			],
			"stateMutability": "pure",
			"type": "function"
		},
		{
			"inputs": [],
			"name": "getSize",
			"outputs": [
				{
					"internalType": "enum Demo4.StarbuckSize",
					"name": "",
					"type": "uint8"
				}
			],
			"stateMutability": "view",
			"type": "function"
		},
		{
			"inputs": [
				{
					"internalType": "enum Demo4.StarbuckSize",
					"name": "s",
					"type": "uint8"
				}
			],
			"name": "setSize",
			"outputs": [],
			"stateMutability": "nonpayable",
			"type": "function"
		},
		{
			"inputs": [],
			"name": "setVenti",
			"outputs": [],
			"stateMutability": "nonpayable",
			"type": "function"
		}
	]
}