{
	"data": {
		"bytecode": {
			"linkReferences": {},
			"object": "608060405234801561001057600080fd5b5060d58061001f6000396000f3fe6080604052348015600f57600080fd5b506004361060325760003560e01c80631d8beb3c146037578063de8fa43114603f575b600080fd5b603d6065565b005b60456089565b60405180826004811115605457fe5b815260200191505060405180910390f35b60036000806101000a81548160ff02191690836004811115608257fe5b0217905550565b60008060009054906101000a900460ff1690509056fea2646970667358221220759b9da2438f6dec3c750de2ef7e16247e5641f3813ee2b3e292566ab77a576664736f6c63430007040033",
			"opcodes": "PUSH1 0x80 PUSH1 0x40 MSTORE CALLVALUE DUP1 ISZERO PUSH2 0x10 JUMPI PUSH1 0x0 DUP1 REVERT JUMPDEST POP PUSH1 0xD5 DUP1 PUSH2 0x1F PUSH1 0x0 CODECOPY PUSH1 0x0 RETURN INVALID PUSH1 0x80 PUSH1 0x40 MSTORE CALLVALUE DUP1 ISZERO PUSH1 0xF JUMPI PUSH1 0x0 DUP1 REVERT JUMPDEST POP PUSH1 0x4 CALLDATASIZE LT PUSH1 0x32 JUMPI PUSH1 0x0 CALLDATALOAD PUSH1 0xE0 SHR DUP1 PUSH4 0x1D8BEB3C EQ PUSH1 0x37 JUMPI DUP1 PUSH4 0xDE8FA431 EQ PUSH1 0x3F JUMPI JUMPDEST PUSH1 0x0 DUP1 REVERT JUMPDEST PUSH1 0x3D PUSH1 0x65 JUMP JUMPDEST STOP JUMPDEST PUSH1 0x45 PUSH1 0x89 JUMP JUMPDEST PUSH1 0x40 MLOAD DUP1 DUP3 PUSH1 0x4 DUP2 GT ISZERO PUSH1 0x54 JUMPI INVALID JUMPDEST DUP2 MSTORE PUSH1 0x20 ADD SWAP2 POP POP PUSH1 0x40 MLOAD DUP1 SWAP2 SUB SWAP1 RETURN JUMPDEST PUSH1 0x3 PUSH1 0x0 DUP1 PUSH2 0x100 EXP DUP2 SLOAD DUP2 PUSH1 0xFF MUL NOT AND SWAP1 DUP4 PUSH1 0x4 DUP2 GT ISZERO PUSH1 0x82 JUMPI INVALID JUMPDEST MUL OR SWAP1 SSTORE POP JUMP JUMPDEST PUSH1 0x0 DUP1 PUSH1 0x0 SWAP1 SLOAD SWAP1 PUSH2 0x100 EXP SWAP1 DIV PUSH1 0xFF AND SWAP1 POP SWAP1 JUMP INVALID LOG2 PUSH5 0x6970667358 0x22 SLT KECCAK256 PUSH22 0x9B9DA2438F6DEC3C750DE2EF7E16247E5641F3813EE2 0xB3 0xE2 SWAP3 JUMP PUSH11 0xB77A576664736F6C634300 SMOD DIV STOP CALLER "
		},
		"gasEstimates": {
			"creation": {
				"codeDepositCost": "42600",
				"executionCost": "93",
				"totalCost": "42693"
			},
			"external": {
				"getSize()": "1075",
				"setVenti()": "21009"
			}
		},
		"methodIdentifiers": {
			"getSize()": "de8fa431",
			"setVenti()": "1d8beb3c"
		}
	},
	"abi": [
		{
			"inputs": [],
			"name": "getSize",
			"outputs": [
				{
					"internalType": "enum Demo4.StarbuckSize",
					"name": "",
					"type": "uint8"
				}
			],
			"stateMutability": "view",
			"type": "function"
		},
		{
			"inputs": [],
			"name": "setVenti",
			"outputs": [],
			"stateMutability": "nonpayable",
			"type": "function"
		}
	]
}